:020000040800F2
:100000000000022005160008390800083B08000817
:100010003D0800083F0800084108000800000000F3
:10002000000000000000000000000000430800087D
:1000300045080008000000004708000849080008BB
:1000400055160008551600085516000855160008E4
:1000500055160008551600085516000855160008D4
:1000600055160008551600085516000855160008C4
:1000700055160008551600085516000855160008B4
:100080005516000855160008551600080000000017
:1000900000000000000000000000000055160008ED
:1000A0005516000855160008551600085516000884
:1000B0005516000855160008551600085516000874
:1000C0005516000855160008551600085516000864
:1000D00055160008551600085516000800000000C7
:1000E00055160008551600085516000800000000B7
:1000F000000000000000000000000000551600088D
:100100000000000055160008551600085516000896
:1001100000000000000000000000000000000000DF
:100120005516000855160008551600085516000803
:10013000551600080000000000000000000000004C
:10014000000000000000000000000000551600083C
:1001500055160008551600085516000855160008D3
:1001600055160008551600080000000000000000A9
:10017000000000000000000000000000000000007F
:1001800000000000551600080000000000000000FC
:08019000551600085516000881
:100198000348044B834202D0034B03B1184770470E
:1001A8000C0000200C000020000000000548064B51
:1001B8001B1AD90F01EBA301491002D0034B03B15D
:1001C800184770470C0000200C00002000000000B9
:1001D80010B5064C237843B9FFF7DAFF044B13B187
:1001E8000448AFF300800123237010BD0C000020E9
:1001F800000000005816000808B5044B1BB104495C
:100208000448AFF30080BDE80840CFE700000000D5
:10021800100000205816000870B50F4B0F4DAB4268
:10022800A3EB050607D0B610002455F8043B0134AB
:100238009847A642F9D801F00BFA094D094B5E1B05
:10024800AB424FEAA60606D0002455F8043B013419
:100258009847A642F9D870BD901600089016000875
:100268009016000894160008830730B547D0541E2E
:10027800002A3ED0CAB2034601E0013C39D303F854
:10028800012B9D07F9D1032C2CD9CDB205EB0525FF
:100298000F2C05EB054535D9A4F1100222F00F0CFF
:1002A80003F1100EE6444FEA121C1A46C2E9005543
:1002B800C2E9025510327245F8D10CF1010214F06E
:1002C8000C0F03EB021204F00F0C13D0ACF1040373
:1002D80023F003030433134442F8045B9342FBD135
:1002E8000CF003042CB1C9B21C4403F8011BA3424F
:1002F800FBD130BD64461346002CF4D1F9E7034620
:100308001446C0E71A46A446E0E700BF53B94AB905
:10031800002908BF00281CBF4FF0FF314FF0FF3005
:1003280000F088B9ADF1080C6DE904CE00F006F8CC
:10033800DDF804E0DDE9022304B070472DE9F04759
:10034800089D0F4604468C46002B48D18A42164623
:1003580061D9B2FA82F34BB1C3F1200201FA03FC6E
:1003680020FA02F29E4042EA0C0C9C404FEA164EDC
:10037800B7B2BCFBFEF1220C0EFB11CC42EA0C42D8
:1003880001FB07F0904209D9B21801F1FF3C80F057
:10039800EE80904240F2EB8002393244121AA4B245
:1003A800B2FBFEF00EFB102244EA024400FB07F702
:1003B800A74209D9341900F1FF3280F0DA80A74248
:1003C80040F2D7803444023840EA0140E41B00215F
:1003D8001DB1DC400023C5E90043BDE8F0878B422E
:1003E80006D90DB1C5E9000100210846BDE8F0872E
:1003F800B3FA83F1002948D1BB4202D3824200F20A
:100408000781841A67EB030201209446002DE4D08B
:10041800C5E9004CE1E7002A00F09280B2FA82F3C5
:10042800002B40F0A8808A1A4FEA164E1FFA86FC65
:100438000121200CB2FBFEF70EFB172240EA024214
:100448000CFB07F0904207D9B21807F1FF3802D227
:10045800904200F2E2804746121AA4B2B2FBFEF0C4
:100468000EFB102244EA02440CFB00FCA44507D909
:10047800341900F1FF3202D2A44500F2CB801046B5
:10048800A4EB0C0440EA0740A2E7C1F120068B4028
:1004980022FA06FC4CEA030C07FA01F420FA06F3E8
:1004A800F7404FEA1C49234300FA01F81FFA8CFE73
:1004B800B7FBF9F01C0C09FB107744EA074400FB72
:1004C8000EF7A74202FA01F20AD91CEB040400F164
:1004D800FF3A80F09B80A74240F29880023864443B
:1004E800E41B9FB2B4FBF9F309FB134447EA044445
:1004F80003FB0EFEA64509D91CEB040403F1FF37E4
:1005080080F08280A6457FD9023B644443EA0040DC
:10051800A4EB0E04A0FB02E7BC427346B94663D3C2
:1005280060D05DB1B8EB030264EB090404FA06F687
:1005380022FA01F31E43CC40C5E9006400214CE7D0
:100548006208480842EAC1710B0C43EA00438AB2C8
:1005580042EA0342B3FBF6F1E407B4463746B6462F
:100568001F23B0FBF6F0D21B41EA004161E7614668
:1005780014E7104628E7C3F1200120FA01F29E4053
:1005880027FA01F19F403A434FEA164E1FFA86FCBC
:10059800B1FBFEF70EFB1710110C41EA004107FBF7
:1005A8000CF8884504FA03F43AD9711807F1FF30BA
:1005B80001D288451FD8A1EB0801B1FBFEF808FB62
:1005C8000CF70EFB181192B242EA0142BA422FD23E
:1005D800B21808F1FF31C6D2BA42C4D2A8F102015A
:1005E8003244C0E7F0459CD2BEEB020367EB0C0730
:1005F8000138B94695E7A6EB08084144B81EB1FB97
:10060800FEF808FB0CF7DCE73B467FE7504667E758
:100618000846FBE63444023832E7023F32441BE71F
:10062800A1EB08013846B1FBFEF808FB0CF7C8E758
:10063800414698E7704700BF72B6FEE710B594B020
:1006480008AC302200212046FFF70EFE002303935A
:1006580004930593069307930193184A116C41F08C
:1006680080511164126C02F080520192019A029337
:10067800134A116841F440411160126802F4404283
:100688000292029A0222089201220B9210220C92E4
:100698000E93204600F0D2F960B90F23039300218E
:1006A800049105910691079103A800F017FC18B969
:1006B80014B010BDFFF7C0FFFFF7BEFF00380240BF
:1006C8000070004008B500F059FEFFF7B7FF00F0D2
:1006D80005F800F057F800F087FEFEE7F0B58BB09C
:1006E80005AD002405940694079408940994019490
:1006F800224B1A6B42F004021A631A6B02F00402CE
:100708000192019A02941A6B42F080021A631A6BE2
:1007180002F080020292029A03941A6B42F00102DC
:100728001A631A6B02F001020392039A04941A6B7B
:1007380042F002021A631B6B03F002030493049B4A
:100748000F4E22464FF48051304600F081FD4FF4A1
:10075800806305930694012707972946304600F0E1
:1007680093FC4FF48053059306970223079308944C
:100778002946304600F088FC0BB0F0BD0038024036
:100788000000024008B50B480B4B03600B4B43605D
:1007980000238360C3604FF4804202614361836138
:1007A800C361036200F06CF800B908BDFFF744FFAD
:1007B800FBE700BF2800002000540040A08601008D
:1007C80030B589B0002303930493059306930793E8
:1007D8000268144B9A4201D009B030BD002501953A
:1007E800114C236B43F002032363236B03F00203D2
:1007F8000193019B4FF44073039312230493032343
:1008080006930423079303A9084800F03DFC0295CA
:10081800236C43F400132364236C03F40013029342
:10082800029BD9E70054004000380240000402400F
:10083800FEE7FEE7FEE7FEE7FEE770477047704712
:1008480008B500F0B5FD08BD82B0002100910B4B42
:100858005A6C42F480425A645A6C02F48042009204
:10086800009A01911A6C42F080521A641B6C03F0D2
:1008780080530193019B02B0704700BF00380240CB
:10088800002800F0CC8070B5044690F83D30002B6D
:1008980077D0242384F83D302268136823F00103BD
:1008A80013602268136843F40043136022681368D6
:1008B80023F40043136000F0C7FB62685A4B9A4266
:1008C80064D85A4B98428CBF00230123002B40F078
:1008D800A8805749A1FB00318B0C25686A6822F073
:1008E8003F0242EA91426A6021680A6A22F03F02A6
:1008F80066684D4DAE424FD8013313430B622168F1
:10090800CA6922F44F4222F0FF026568464B9D42B5
:100918004CD8431E6D00B3FBF5F3013340F6FC7071
:10092800034278D0C3F30B031A43CA6121680B68EA
:1009380023F0C003E269206A024313430B60216875
:100948008B6823F4034323F0FF032269E068024322
:1009580013438B602168CB6823F0FF036269A069A9
:1009680002431343CB602268136843F0010313600A
:1009780000202064202384F83D30206384F83E0062
:1009880070BD80F83C30FFF71BFF82E7294B984287
:100998008CBF0023012399E74FF4967505FB03F3F9
:1009A800254DA5FB03539B090133A6E7A668BEB9ED
:1009B800431E05EB450CB3FBFCF30133C3F30B03F8
:1009C800B3FA83F35B0943BBC6B9431E05EB450580
:1009D800B3FBF5F30133C3F30B0343F40043A3E77D
:1009E800431E05EB850C0CEB8C0CB3FBFCF30133BD
:1009F800C3F30B03B3FA83F35B09E4E7431E05EB88
:100A0800850505EB8505B3FBF5F30133C3F30B034C
:100A180043F4404388E7042386E7012384E7012061
:100A280070470120ACE700BFA08601007F841E004C
:100A380083DE1B43FF083D00D34D6210002800F001
:100A4800E08170B582B00446036813F0010F3BD013
:100A58009F4B9B6803F00C03042B2CD09C4B9B688A
:100A680003F00C03082B21D06368B3F5803F4FD007
:100A7800B3F5A02F52D0964B1A6822F480321A6030
:100A88001A6822F480221A606368002B50D000F0A4
:100A98009BFC05468E4B1B6813F4003F14D100F0F5
:100AA80093FC401B6428F5D90320B1E1884B5B68AF
:100AB80013F4800FD8D0864B1B6813F4003F03D083
:100AC8006368002B00F09F81236813F0020F54D055
:100AD8007F4B9B6813F00C0F3ED07D4B9B6803F057
:100AE8000C03082B33D0E368002B68D0794B012224
:100AF8001A6000F069FC0546754B1B6813F0020F7D
:100B080054D100F061FC401B0228F5D903207FE195
:100B18006F4A136843F480331360B5E76C4B1A6867
:100B280042F480221A601A6842F480321A60ABE7F5
:100B380000F04AFC0546664B1B6813F4003FC3D01F
:100B480000F042FC401B6428F5D9032060E1604BAB
:100B58005B6813F4800FC6D15D4B1B6813F0020F5E
:100B680003D0E368012B40F05081594A136823F001
:100B7800F803216943EAC1031360236813F0080FDF
:100B880042D063696BB3534B0122C3F8802E00F047
:100B98001BFC05464E4B5B6F13F0020F34D100F07F
:100BA80013FC401B0228F5D9032031E1484A136899
:100BB80023F0F803216943EAC1031360DDE7454BDD
:100BC80000221A6000F000FC0546414B1B6813F038
:100BD800020FD2D000F0F8FB401B0228F5D9032001
:100BE80016E13C4B0022C3F8802E00F0EDFB0546D1
:100BF800374B5B6F13F0020F06D000F0E5FB401B8C
:100C08000228F5D9032003E1236813F0040F77D0F5
:100C18002F4B1B6C13F0805F33D1002301932C4BB7
:100C28001A6C42F080521A641B6C03F080530193D3
:100C3800019B0125284B1B6813F4807F23D0A368F0
:100C4800012B34D0052B38D0214B1A6F22F001022A
:100C58001A671A6F22F004021A67A368002B3DD0A6
:100C680000F0B2FB06461A4B1B6F13F0020F46D179
:100C780000F0AAFB801B41F288339842F3D9032085
:100C8800C6E00025D6E7144A136843F4807313605E
:100C980000F09AFB0646104B1B6813F4807FCED1F8
:100CA80000F092FB801B0228F5D90320B0E0084A27
:100CB800136F43F001031367CFE7054B1A6F42F038
:100CC80004021A671A6F42F001021A67C5E700BFEB
:100CD80000380240000047420070004000F074FBFA
:100CE8000646524B1B6F13F0020F08D000F06CFB46
:100CF800801B41F288339842F3D9032088E0EDB98C
:100D0800A369002B00F08380484A926802F00C0225
:100D1800082A51D0022B17D0454B00221A6600F042
:100D280053FB0446414B1B6813F0007F42D000F090
:100D38004BFB001B0228F5D9032069E03B4A136CE2
:100D480023F080531364DBE7394B00221A6600F066
:100D58003BFB0546354B1B6813F0007F06D000F0BF
:100D680033FB401B0228F5D9032051E0E369226ACE
:100D78001343626A43EA8213A26A5208013A43EAB9
:100D88000243E26A43EA0263284A5360284B01227D
:100D98001A6600F019FB0446244B1B6813F0007F09
:100DA80006D100F011FB001B0228F5D903202FE023
:100DB80000202DE000202BE0012B2BD01B4B5B6883
:100DC80003F48001E269914226D103F03F02216ACF
:100DD8008A4223D1616A47F6C0721A40B2EB811F7A
:100DE8001ED103F44031A26A5208013AB1EB024F16
:100DF80018D103F07063E26AB3EB026F14D10020DC
:100E080006E001207047012002E0012000E00020F8
:100E180002B070BD0120FBE70120F9E70120F7E7E8
:100E28000120F5E70120F3E70120F1E7003802404F
:100E38000000474208B5264B9B6803F00C03042BBF
:100E480041D0082B41D1224B5A6802F03F025B681F
:100E580013F4800F12D01E4B5968C1F388111D4836
:100E68000023A1FB0001FFF751FA194B5B68C3F39C
:100E7800014301335B00B0FBF3F008BD144B586825
:100E8800C0F388104FEA401CBCEB000C6EEB0E0E52
:100E98004FEA8E1343EA9C634FEA8C11B1EB0C01C5
:100EA80063EB0E03DB0043EA5173C90011EB000C3E
:100EB80043F10003990200234FEA8C2041EA9C5138
:100EC800FFF724FAD1E70348D7E70348D5E700BF7F
:100ED8000038024040787D010024F400002800F02A
:100EE8009B8070B50D4604464F4B1B6803F0070303
:100EF8008B4208D2CBB24C4A1370136803F0070335
:100F08008B4240F08B80236813F0020F17D013F048
:100F1800040F04D0454A936843F4E0539360236870
:100F280013F0080F04D0414A936843F46043936078
:100F38003E4A936823F0F003A1680B43936023684B
:100F480013F0010F32D06368012B21D09A1E012AB9
:100F580025D9364A126812F0020F61D033498A68DF
:100F680022F0030213438B6000F02EFA06462F4B43
:100F78009B6803F00C036268B3EB820F16D000F095
:100F880023FA801B41F288339842F0D9032042E0CB
:100F9800264A126812F4003FE0D101203BE0234AC0
:100FA800126812F0007FD9D1012034E01E4B1B6873
:100FB80003F00703AB4207D9EAB21B4B1A701B6850
:100FC80003F00703AB422DD1236813F0040F06D0BA
:100FD800164A936823F4E053E1680B43936023684F
:100FE80013F0080F07D0114A936823F4604321696E
:100FF80043EAC1039360FFF71DFF0C4B9B68C3F3E3
:1010080003130B4AD35CD8400A4B18600A4B186884
:1010180000F08EF9002070BD012070470120FAE72A
:101028000120F8E70120F6E7003C024000380240C2
:10103800781600080800002004000020014B1868FA
:10104800704700BF0800002008B5FFF7F7FF044B02
:101058009B68C3F38223034AD35CD84008BD00BF12
:10106800003802407016000808B5FFF7E7FF044B88
:101078009B68C3F34233034AD35CD84008BD00BF22
:10108800003802407016000800230F2B00F2D780AA
:1010980070B582B065E085684FEA430E032404FA10
:1010A8000EF425EA0405CC6804FA0EF42C43846097
:1010B800446824EA02044A68C2F300129A402243B0
:1010C80042605CE0DC08083450F8242003F007058F
:1010D800AD004FF00F0E0EFA05FE22EA0E0E0A6959
:1010E800AA4042EA0E0240F824205CE0042200E014
:1010F800002202FA0EF22A430234514D45F8242008
:10110800504A94686FEA0C0224EA0C054E6816F4FB
:10111800801F01D04CEA04054A4CA560E46802EA45
:1011280004054E6816F4001F01D04CEA0405454C2E
:10113800E560646802EA04054E6816F4003F01D0D1
:101148004CEA04053F4C6560246822404D6815F45C
:10115800803F01D04CEA04023A4C226001330F2B45
:101168006BD801229A400C6804EA020C32EA0404A3
:10117800F4D14C6804F00304013C012C8BD94A6873
:1011880002F00302032A09D0C4685D000322AA40C2
:1011980024EA02048A68AA402243C2604A6802F02C
:1011A8000302022A8ED004684FEA430E032202FA91
:1011B8000EF224EA02044A6802F0030202FA0EF26E
:1011C800224302604A6812F4403FC7D000220192CD
:1011D8001D4A546C44F480445464526C02F48042B6
:1011E8000192019A9C08A51C154A52F8255003F053
:1011F800030E4FEA8E0E0F2202FA0EF225EA0205BE
:10120800124A90423FF474AF02F5806290420ED0C9
:1012180002F5806290420CD002F5806290420AD0BA
:1012280002F5806290423FF461AF072261E7012234
:101238005FE702225DE703225BE702B070BD7047FB
:1012480000380140003C01400038024000000240E4
:101258000AB181617047090481617047002808DB81
:101268000901C9B200F1604000F5614080F800133F
:10127800704700F00F000901C9B2014B19547047BB
:1012880014ED00E000B500F00700C0F1070CBCF158
:10129800040F28BF4FF0040C031D062B0FD9C31EE3
:1012A8004FF0FF3E0EFA0CF021EA000199400EFAC9
:1012B80003FE22EA0E0241EA02005DF804FB002365
:1012C800EEE70000074AD36823F4E0631B041B0C15
:1012D800000200F4E060034343F0BF6343F40033CB
:1012E800D360704700ED00E010B50446054BD868A0
:1012F800C0F30220FFF7C6FF01462046FFF7AEFF06
:1013080010BD00BF00ED00E00138B0F1807F0BD2C6
:101318004FF0E0235861054AF02182F8231000209D
:10132800986107221A6170470120704700ED00E0BC
:1013380010B504460E4B1A784FF47A73B3FBF2F3E8
:101348000C4A1068B0FBF3F0FFF7DEFF68B90F2C0A
:1013580001D901200AE0002221464FF0FF30FFF7B3
:10136800C3FF054B1C60002000E0012010BD00BF3A
:1013780000000020080000200400002008B50B4BE6
:101388001A6842F400721A601A6842F480621A609D
:101398001A6842F480721A600320FFF793FF0F2047
:1013A800FFF7C6FFFFF750FA002008BD003C0240D7
:1013B800034A1168034B1B780B441360704700BF46
:1013C8007C00002000000020014B1868704700BF17
:1013D8007C000020034AD2F8883043F47003C2F836
:1013E8008830704700ED00E008B50A480A4B0360F2
:1013F8004FF4E133436000238360C36003610C2230
:1014080042618361C36100F0C9F800B908BDFFF704
:1014180013F9FBE7800000200010014000B589B0F7
:10142800002303930493059306930793026803F13B
:10143800804303F588339A4202D009B05DF804FB73
:101448000021019103F594335A6C42F010025A645A
:101458005A6C02F010020192019A02911A6B42F042
:1014680002021A631B6B03F002030293029BC02360
:10147800039302230493032306930723079303A9E3
:101488000148FFF701FED8E70004024010B5044602
:101498000268136923F44053C1680B4313618368DE
:1014A80002691A4343691A43C3691A430168CB683E
:1014B80023F4164323F00C031343CB6002685369EB
:1014C80023F4407381690B4353610368314A9342A3
:1014D80006D002F58062934202D0FFF7B5FD01E025
:1014E800FFF7C2FDE369B3F5004F29D000210318C7
:1014F80049411B1841F10001C90041EA5371DB0061
:10150800181863684FEA83024FEA937341F10001A8
:10151800FEF7FCFE204AA2FB00314909642303FBC5
:1015280011031B013233A2FB03235B0903F0F00212
:1015380002EB011203F00F03216813448B6010BD06
:101548000023021843EB0301121841F10001C900FE
:1015580041EA5271D200101841F1000162689218F4
:101568005B41FEF7D3FE0C4AA2FB00314909642314
:1015780003FB1103DB003233A2FB03235B095A0090
:1015880002F4F87202EB011203F007032168134416
:101598008B60D4E7001001401F85EB5160B310B594
:1015A800044690F8413013B3242384F8413022686C
:1015B800D36823F40053D3602046FFF767FF2268FF
:1015C800136923F4904313612268536923F02A03B3
:1015D80053612268D36843F40053D36000206064E9
:1015E800202384F8413084F84230606310BD80F8CD
:1015F8004030FFF713FFD7E701207047DFF834D0FA
:10160800FFF7E8FE0C480D490D4A002302E0D458C4
:10161800C4500433C4188C42F9D30A4A0A4C002334
:1016280001E013600432A242FBD3FEF7F5FDFFF799
:1016380049F8704700000220000000200C0000203C
:10164800981600080C000020C8000020FEE70000E3
:10165800F8B500BFF8BC08BC9E467047F8B500BF97
:08166800F8BC08BC9E46704767
:101670000000000001020304000000000000000060
:0816800001020304060708093A
:08168800BCECFF7F0100000033
:04169000010200084B
:04169400D901000870
:0C16980001000000100000000024F4001D
:0400000508001605D4
:00000001FF
